:1000000014C024C022C021C020C01FC065C01DC0B4
:100010001CC01BC01AC019C018C017C016C015C01C
:1000200014C013C012C011C010C011241FBECFE5F0
:10003000D1E0DEBFCDBF20E0A0E6B0E001C01D9260
:10004000A836B207E1F709D115C1DACF1F920F9296
:100050000FB60F9211248F939F9381E090E09093BD
:100060006700809366009F918F910F900FBE0F9055
:100070001F90189510BE13BE83B7856083BF789418
:1000800012BE89B7826089BF089587B38E6F87BB20
:100090008BB780648BBF85B78E6085BF0895F5DF11
:1000A000E9CF80916200909163008F33910571F4E4
:1000B0001092630010926200809160009091610044
:1000C000019690936100809360000895019690934B
:1000D00063008093620008951F920F920FB60F92F3
:1000E00011242F933F934F935F936F937F938F933D
:1000F0009F93AF93BF93EF93FF93D3DFFF91EF9164
:10010000BF91AF919F918F917F916F915F914F912F
:100110003F912F910F900FBE0F901F9018958091D7
:10012000660090916700019709F094C08091640087
:100130009091650081309105B9F140F082309105D0
:1001400009F442C0039709F44BC008958091600000
:10015000909161000397D0F48091620090916300C8
:100160008F30910531F08D32910519F08A35910566
:1001700011F48AE00AC08A30910531F0813491058A
:1001800019F08837910511F488E088BB80916000F0
:1001900090916100039719F481E090E010C01092F3
:1001A000650010926400089528EA28BB2091600041
:1001B00030916100232B09F448C082E090E09093D5
:1001C00065008093640036C024E928BB209160005C
:1001D000309161002A303105C0F183E090E0EFCF2B
:1001E00080916000909161000397D0F4809162004B
:1001F000909163008F30910531F08D32910519F0A7
:100200008A35910511F484E90AC08A30910531F0EC
:100210008134910519F08837910511F480E888BB85
:100220008091600090916100039769F410926700DB
:1002300010926600109263001092620010926100AA
:1002400010926000089583E090E0909365008093A1
:100250006400089588E688BB089588B318BA1092A0
:10026000670010926600109265001092640017DF1C
:0802700056DFFECFF894FFCF2A
:00000001FF
