:100000000C940F030C9437030C9437030C94801159
:100010000C9480110C9480110C9437030C943703CA
:100020000C9437030C9437030C9437030C94370368
:100030000C9437030C9437030C9437030C94370358
:100040000C94DE100C9437030C944E110C94281170
:100050000C9437030C9437030C9437030C94370338
:100060000C948A110C94370308000000BE922449B6
:10007000123EABAAAA2ABECDCCCC4C3E00000080DA
:10008000BEABAAAAAA3E00000000BF000000803F4D
:100090000000000000084178D3BB4387D1133D190D
:1000A0000E3CC3BD4282AD2B3E68EC8276BED98F3A
:1000B000E1A93E4C80EFFFBE01C4FF7F3F0000007E
:1000C000000000000000003E5B4F5B3E3E6B4F6B4C
:1000D0003E1C3E7C3E1C183C7E3C181C577D571C29
:1000E0001C5E7F5E1C00183C1800FFE7C3E7FF00A2
:1000F00018241800FFE7DBE7FF30483A060E2629F0
:10010000792926407F050507407F05253F5A3CE7B2
:100110003C5A7F3E1C1C08081C1C3E7F14227F2278
:10012000145F5F005F5F06097F017F006689956A43
:10013000606060606094A2FFA29408047E040810CE
:10014000207E201008082A1C08081C2A08081E10F7
:100150001010100C1E0C1E0C30383E3830060E3EAF
:100160000E06000000000000005F0000000700070E
:1001700000147F147F14242A7F2A12231308646238
:1001800036495620500008070300001C2241000099
:1001900041221C002A1C7F1C2A08083E08080080F7
:1001A000703000080808080800006060002010088F
:1001B00004023E5149453E00427F40007249494990
:1001C000462141494D331814127F102745454539C2
:1001D0003C4A4949314121110907364949493646C6
:1001E0004949291E000014000000403400000008A6
:1001F0001422411414141414004122140802015949
:1002000009063E415D594E7C1211127C7F494949D5
:10021000363E414141227F4141413E7F494949416A
:100220007F090909013E414151737F0808087F0099
:10023000417F41002040413F017F081422417F401F
:100240004040407F021C027F7F0408107F3E4141F6
:10025000413E7F090909063E4151215E7F09192966
:1002600046264949493203017F01033F4040403F50
:100270001F2040201F3F4038403F63140814630391
:10028000047804036159494D43007F414141020410
:10029000081020004141417F040201020440404017
:1002A0004040000307080020545478407F2844440D
:1002B000383844444428384444287F385454541827
:1002C00000087E090218A4A49C787F080404780022
:1002D000447D40002040403D007F10284400004104
:1002E0007F40007C047804787C0804047838444417
:1002F0004438FC1824241818242418FC7C0804040E
:1003000008485454542404043F44243C4040207C76
:100310001C2040201C3C4030403C44281028444CC9
:100320009090907C4464544C440008364100000096
:10033000770000004136080002010204023C262337
:10034000263C1EA1A161123A4040207A38545455EF
:1003500059215555794122545478422155547840B9
:1003600020545579400C1E52721239555555593941
:100370005454545939555454580000457C41000296
:10038000457D420001457C407D1211127DF02825FB
:1003900028F07C545545002054547C547C0A097F35
:1003A0004932494949323A4444443A324A48483049
:1003B0003A4141217A3A42402078009DA0A07D3DFB
:1003C0004242423D3D4040403D3C24FF2424487E83
:1003D0004943662B2FFC2F2BFF0929F620C0887E6E
:1003E000090320545479410000447D413048484A73
:1003F00032384040227A007A0A0A727D0D19317D26
:100400002629292F28262929292630484D402038F9
:100410000808080808080808382F10C8ACBA2F10B8
:100420002834FA00007B000008142A142222142A1F
:1004300014085500550055AA55AA55AAFF55FF5551
:10044000FF000000FF00101010FF00141414FF0044
:100450001010FF00FF1010F010F0141414FC001422
:1004600014F700FF0000FF00FF1414F404FC141440
:1004700017101F10101F101F1414141F001010103D
:10048000F0000000001F101010101F10101010F0CE
:1004900010000000FF101010101010101010FF10AE
:1004A000000000FF140000FF00FF00001F101700F5
:1004B00000FC04F414141710171414F404F40000CE
:1004C000FF00F714141414141414F700F714141480
:1004D000171410101F101F141414F4141010F0101F
:1004E000F000001F101F0000001F14000000FC148B
:1004F0000000F010F01010FF10FF141414FF14107F
:1005000010101F00000000F010FFFFFFFFFFF0F0D1
:10051000F0F0F0FFFFFF0000000000FFFF0F0F0FE3
:100520000F0F3844443844FC4A4A4A347E020206DB
:1005300006027E027E0263554941633844443C040E
:10054000407E201E2006027E020299A5E7A5991C86
:100550002A492A1C4C7201724C304A4D4D303048A9
:10056000784830BC625A463D3E494949007E010107
:10057000017E2A2A2A2A2A44445F444440514A449C
:100580004040444A51400000FF0103E080FF00006A
:1005900008086B6B083612362436060F090F060062
:1005A0000018180000001010003040FF0101001F6B
:1005B00001011E00191D1712003C3C3C3C000000CC
:1005C000000000000000240027002A0000000008AE
:1005D000000201000003040700000000000000000A
:1005E000000000002300260029000102040810205A
:1005F00040800102040810200102040810200000BD
:100600000000250028002B00040404040404040452
:10061000020202020202030303030303A5121124D0
:100620001FBECFEFD8E0DEBFCDBF13E0A0E0B1E04A
:10063000E8EDF4E302C005900D92AE3BB107D9F7A7
:1006400025E0AEEBB3E001C01D92AB30B207E1F79D
:1006500013E0CFE0D3E004C02197FE010E943A19D5
:10066000CE30D107C9F70E9471130C946A1A0C940A
:100670000000FC0120812EBD0DB407FEFDCF2EB57C
:10068000FC0120830895833081F028F4813099F0B3
:100690008230A9F008958730A9F08830C9F08430FD
:1006A000B1F4809180008F7D03C0809180008F77AE
:1006B00080938000089584B58F7784BD089584B5B4
:1006C0008F7DFBCF8091B0008F778093B00008952D
:1006D0008091B0008F7DF9CF1F93CF93DF93282FA8
:1006E00030E0F901E453FA4F8491F901E651FA4FF1
:1006F000D491F901E85FF94FC491CC23A9F0162FEA
:1007000081110E944303EC2FF0E0EE0FFF1FE25037
:10071000FA4FA591B4918FB7F894EC91111108C0DC
:10072000D095DE23DC938FBFDF91CF911F91089589
:10073000DE2BF8CFCF93DF9390E0FC01E651FA4F28
:100740002491885F994FFC0184918823D1F090E037
:10075000880F991FFC01EE53FA4FA591B491FC014B
:10076000E250FA4FC591D49161110EC09FB7F89431
:100770008C91E22FE0958E238C932881E223E883ED
:100780009FBFDF91CF9108958FB7F894EC91E22B42
:10079000EC938FBFF6CFCF93DF93EC0161E08BE05A
:1007A0000E949A03209731F460E08BE0DF91CF91B3
:1007B0000C946C03CF3FD10511F461E0F6CFE7ED67
:1007C000F5E0E491E33029F140F4E130B1F0E230BA
:1007D000D9F0C038D1058CF7E7CFE73021F1E83008
:1007E00051F1E430B1F78091800080628093800005
:1007F000D0938B00C0938A0004C084B5806884BD08
:10080000C7BDDF91CF91089584B5806284BDC8BD16
:10081000F8CF80918000806880938000D093890019
:10082000C0938800EECF8091B00080688093B000C4
:10083000C093B300E6CF8091B00080628093B00097
:10084000C093B400DECF8E50806480937C00809192
:100850007A00806480937A0080917A0086FDFCCFD4
:10086000809178009091790008958230910538F058
:10087000880F991F880F991F05970197F1F7089521
:100880009F92AF92BF92CF92DF92EF92FF920F931F
:100890001F93CF93DF93EC016B018885998511E05D
:1008A000892B09F010E8F601A0808A2D8123992474
:1008B00093948111912C2C813D814E815F8160E266
:1008C00071EA87E090E00E940419022FB12CE22E19
:1008D000F12C002319F0C7010E9435048A85877F17
:1008E00009F04FC08D858F3F89F09A2D912381E0CB
:1008F00009F480E0891551F0EF85F8898F899923F3
:10090000D1F19081892B808399249394E989FA8984
:100910008081998D892B8083002319F0C7010E9463
:1009200035048E858F3F39F0EB89FC898081988D65
:10093000892309F0B12AE989FA899081898D809506
:10094000892380838E858F3F11F0F601B0828885E0
:100950009985892B09F044C0110F1111BACFDF918D
:10096000CF911F910F91FF90EF90DF90CF90BF90AC
:10097000AF909F9008959081809589238083912CDA
:10098000C5CFE989FA898081998D892B80830023DD
:1009900019F0C7010E9435048D858F3F49F0EF851E
:1009A000F8898F899A2D9123B9F09081892B8083C2
:1009B000E989FA899081898D8095892380838E8544
:1009C0008F3F09F4BFCFEB89FC898081988D892303
:1009D00009F4B8CFB12AB6CF908180958923E7CFAB
:1009E0001695BBCFAF92BF92CF92DF92EF92FF925C
:1009F0000F931F93CF93DF931F92CDB7DEB78C0178
:100A00005B016A01DC018D919C911197892B39F072
:100A10001296ED91FC91908181819CBD8DBDF80174
:100A200083858F3F19F060E00E946C037501CA0C4A
:100A3000DB1CCE14DF04A9F0D7018D917D018983E1
:100A4000F80180819181892B29F0CE0101960E94C5
:100A50003903EFCFBE016F5F7F4FC8010E94400492
:100A6000E8CFD8011B968C918F3F19F061E00E946E
:100A70006C0381E00F90DF91CF911F910F91FF9058
:100A8000EF90DF90CF90BF90AF9008953FB7F8946C
:100A900080913F0490914004A0914104B0914204A0
:100AA00026B5A89B05C02F3F19F00196A11DB11DC9
:100AB0003FBFBA2FA92F982F8827BC01CD01620F05
:100AC000711D811D911D42E0660F771F881F991FC0
:100AD0004A95D1F708958F929F92AF92BF92CF928D
:100AE000DF92EF92FF924B015C010E9446056B0181
:100AF0007C010E9446056C197D098E099F09683E9C
:100B0000734081059105A8F321E0821A9108A1089C
:100B1000B10888EEC80E83E0D81EE11CF11C8114D8
:100B20009104A104B10429F7FF90EF90DF90CF90DA
:100B3000BF90AF909F908F900895AF92BF92CF9249
:100B4000DF92EF92FF920F931F93CF93DF936C018D
:100B50007B018B01040F151FEB015E01AE18BF086E
:100B6000C017D10759F06991D601ED91FC91019020
:100B7000F081E02DC6010995892B79F7C501DF9138
:100B8000CF911F910F91FF90EF90DF90CF90BF908A
:100B9000AF900895FC01538D448D252F30E0842FB4
:100BA00090E0821B930B541710F0CF960895019795
:100BB0000895FC01918D828D981761F0A28DAE0F82
:100BC000BF2FB11D5D968C91928D9F5F9F73928F09
:100BD00090E008958FEF9FEF0895FC01918D828D35
:100BE000981731F0828DE80FF11D858D90E0089502
:100BF0008FEF9FEF0895FC01918D228D892F90E05A
:100C0000805C9F4F821B91098F739927089583E41D
:100C100094E00E94FB0521E0892B09F420E0822F5B
:100C2000089580E090E0892B29F00E940706811149
:100C30000C9400000895FC01A48DA80FB92FB11DDC
:100C4000A35ABF4F2C91848D90E001968F73992702
:100C5000848FA689B7892C93A089B1898C918370E0
:100C600080648C93938D848D981306C00288F389D9
:100C7000E02D80818F7D80830895EF92FF920F9306
:100C80001F93CF93DF93EC0181E0888F9B8D8C8D38
:100C900098131AC0E889F989808185FF15C09FB72C
:100CA000F894EE89FF896083E889F98980818370EF
:100CB000806480839FBF81E090E0DF91CF911F919E
:100CC0000F91FF90EF900895F62E0B8D10E00F5FBF
:100CD0001F4F0F731127E02E8C8D8E110CC00FB695
:100CE00007FCFACFE889F989808185FFF5CFCE012D
:100CF0000E941B06F1CFEB8DEC0FFD2FF11DE35A87
:100D0000FF4FF0829FB7F8940B8FEA89FB898081AF
:100D10008062CFCFCF93DF93EC01888D8823B9F029
:100D2000AA89BB89E889F9898C9185FD03C08081F6
:100D300086FD0DC00FB607FCF7CF8C9185FFF2CF73
:100D4000808185FFEDCFCE010E941B06E9CFDF91A8
:100D5000CF9108952091E503260F3327331F2132C9
:100D60003105ECF420910904FC0190E080E024308E
:100D700069F082E00895A091E5032191AC014B5305
:100D80005C4FA40FB52FB11D2C930196861798F3D5
:100D90008091E503680F6093E50380E0089581E0AA
:100DA000089508958FEF9FEF08958FEF9FEF0895B7
:100DB0008091BE0390E09195819591090895CF931C
:100DC000DF93CB01EA01642F0E94AA06CE01DF91D6
:100DD000CF910895CF93DF931F92CDB7DEB769838C
:100DE00061E0CE0101960E94AA0681E090E00F909A
:100DF000DF91CF9108950895FC016370668B848123
:100E0000958126813781613039F0633029F09187EF
:100E10008087338722870895318720879387828749
:100E200008952F923F924F925F926F927F928F928E
:100E30009F92AF92BF92CF92DF92EF92FF920F9369
:100E40001F93CF93DF93CDB7DEB76A970FB6F894B1
:100E5000DEBF0FBECDBF9A8F898F7A8369834A0127
:100E6000D22E18870F833701BC2CDC0159962D91A7
:100E70003C915A972115310509F015C118968D91AD
:100E80009C911997681779070CF0D7C11A968D9124
:100E90009C91481759070CF0D0C14C2C512CB6E04E
:100EA000CB9E600D711D11247C876B87161617066B
:100EB0000CF0C3C1EA2DF0E0FA87E98793E0EE0F6A
:100EC000FF1F9A95E1F7F88BEF87CF01840F951FED
:100ED000181619060CF0B1C1A98DBA8D58968C91CF
:100EE000811104C0BFEABD1508F4D394A98DBA8D51
:100EF000ED91FC9111970284F385E02DCD010995C8
:100F0000B5E0DB9EC0011124E981FA81FC83EB830B
:100F1000312C212C9C012E533F4F388F2F8B4A2D83
:100F200050E05E8B4D8BEF89F88DE20DF31D4491FF
:100F30009E828D82D12CC12C69817A81620D731DB4
:100F40007A8B698B842F90E09C8B8B8BE98DFA8D4B
:100F5000A081B18140FF82C0F1E0BF126FC0AF122B
:100F60006DC01C96ED91FC912F813885A4014C0D2C
:100F70005D1D69897A89898D9A8D0995EB89FC892E
:100F8000F595E7954E2F5FEFC51AD50A6D817E81E5
:100F90008D899E89680F791F7E836D8398E0C916BD
:100FA000D10481F6AFEF2A1A3A0AEB81FC81E40DF5
:100FB000F51DFC83EB83F5E02F16310409F0B3CF68
:100FC0002F81388526153705B9F0A98DBA8DED9199
:100FD000FC91B1E0BB1257C0AB1255C069817A8158
:100FE0006B5F7F4F0088F189E02D830128E030E0BE
:100FF000A401898D9A8D0995A98DBA8DED91FC91E9
:1010000011970688F789E02DCD016A960FB6F894FE
:10101000DEBF0FBECDBFDF91CF911F910F91FF902B
:10102000EF90DF90CF90BF90AF909F908F907F9088
:101030006F905F904F903F902F9009941E96ED9186
:10104000FC91EF80F88409851A8592014D815E81BB
:101050006B817C81898D9A8D099590CF2F81388500
:101060002615370509F48ACF31E0B31207C0A31261
:1010700005C01C96ED91FC91930178CF1E96ED91E1
:10108000FC917301E0CF6B857C856419750906843A
:10109000F785E02D73010F8518899201A401898DD0
:1010A0009A8D0995A9CFF90134969491329745917B
:1010B0005491D91AB7E0DB9E400D511D1124F9015E
:1010C000259134913C8B2B8BFA0125903490FA01B9
:1010D0003296749031963491398B32966490319671
:1010E000449041E04C1518F04A1508F07FC0662D79
:1010F000062C000C770B7C836B83842D042C000C56
:10110000990B9E838D83A98DBA8DED91FC911197DA
:101110000284F385E02DCD010995512CD12CC12CF1
:10112000EA2DF0E0FA87E9872B2D30E03C872B870A
:10113000A401440D511D47FC5A95588F4F8B69816E
:101140007A81660D711D67FC7A957E876D87798936
:10115000C71608F051CF2C2D30E04D815E81420F33
:10116000531FA985BA854A9FC0014B9F900D5A9F76
:10117000900D1124FC01E80DF91DF88BEF87852DEA
:10118000612C4F89588D420F531F5E8B4D8B671416
:1011900008F050C044244394480E877041F4C101C4
:1011A0000196EB89FC89E20DF31DD4901C01D7FE5A
:1011B00019C0A98DBA8DED91FC91662D70E0B1E05A
:1011C000BB1219C0AB1217C02D853E85620F731F6D
:1011D0000484F585E02D2F8138854D895E89898DC0
:1011E0009A8D0995DD0C6394842DD1CF1E821D82CA
:1011F0001C821B8288CF4B815C81640F751FAB857D
:10120000BC856A9FC0016B9F900D7A9F900D112441
:1012100069817A81680F791F0684F785E02DEF8058
:10122000F88409851A859D014F855889898D9A8D85
:101230000995D8CF570CC3948ACF6A960FB6F89405
:10124000DEBF0FBECDBFDF91CF911F910F91FF90F9
:10125000EF90DF90CF90BF90AF909F908F907F9056
:101260006F905F904F903F902F9008958F929F9234
:10127000AF92CF92EF92FF920F931F93CF93DF9392
:10128000EC01262F898D9A8D009709F051C06A30A4
:10129000D1F41D861C868D8948E0849F900111241D
:1012A0008E859F85820F931F9F878E8781E090E0B8
:1012B000DF91CF911F910F91FF90EF90CF90AF9062
:1012C0009F908F9008956D3089F3CC88AD888F8979
:1012D0008823C1F08C859D8536E0C39E800D911DCD
:1012E0001124488559854817590764F44E855F8550
:1012F0001D861C8638E0A39EC0011124840F951F13
:101300009F878E87EA88FB88088919894E855F85C3
:101310006C857D85CE010E9411072C898C859D8569
:1013200046E0249F800D911D11249D878C87BECFA0
:101330006A3069F41D861C86FC013896E4912D897B
:101340008E859F85E29F800D911D1124ADCF6D305C
:1013500009F4ACCFFC0134963491631708F4A6CF9E
:101360003296E491E61708F4A1CFFC0132968590FD
:101370009490462F431B342F47E0349F800C911CE0
:101380001124F401329634913196E4913323A9F17A
:10139000EE2399F1CC88F4013596E491AD884F891C
:1013A000442301F10E2E000CFF0BE30FF11DCE9E26
:1013B000A001CF9E500D11246C857D85460F571FCF
:1013C00068857985641775076CF44E855F851D8681
:1013D0001C86FC013896E491AE9E400D511D1124EF
:1013E0005F874E87EA88FB88088919894E855F8563
:1013F0006C857D85CE010E941107F4013496E4913D
:101400002C898C859D85E29F800D911D11248DCFA7
:101410006F927F928F929F92AF92BF92CF92DF9204
:10142000EF92FF920F931F93CF93DF93EC016B0129
:101430005A0139014801E881F9810284F385E02DE0
:101440000995E881F9810288F389E02D87019301EC
:10145000A501B601CE010995A501480D591D4150C0
:101460005109E881F9810288F389E02D9301B601E1
:10147000CE010995E881F9810088F189E02D940178
:10148000A501B601CE010995C60CD71CB601615065
:101490007109E881F9810088F189E02D9401A501A5
:1014A000CE010995E881F9810688F789E02DCE0102
:1014B000DF91CF911F910F91FF90EF90DF90CF9030
:1014C000BF90AF909F908F907F906F9009946F9294
:1014D0007F928F929F92AF92BF92CF92DF92EF92C4
:1014E000FF920F931F93CF93DF935C01EB016A018F
:1014F000490138018701DC01ED91FC916217730706
:1015000019F5641675062CF0962D872D3A01C92E13
:10151000D82E9601261937092F5F3F4F048CF58D81
:10152000E02DA301BE01C5010995DF91CF911F9167
:101530000F91FF90EF90DF90CF90BF90AF909F9072
:101540008F907F906F9008954615570591F4261758
:10155000370724F0892D4B01C22FD82F9E0128195F
:1015600039092F5F3F4F068CF78DE02DA601B4019E
:10157000DACF0284F385E02D0995D501ED91FC9138
:101580000488F589E02D83019401A601BE01C501FF
:101590000995D501ED91FC910688F789E02DC501EB
:1015A000DF91CF911F910F91FF90EF90DF90CF903F
:1015B000BF90AF909F908F907F906F900994EF9223
:1015C000FF920F931F93DC011A960D911C911B97AC
:1015D00018962D913C911997ED91FC9100A0F1A1E5
:1015E000E02D7B0150E040E070E060E009951F9144
:1015F0000F91FF90EF9008954F925F926F927F92BC
:101600008F929F92AF92BF92CF92DF92EF92FF9212
:101610000F931F93CF93DF936C012B015A01390174
:101620004801DC01ED91FC910284F385E02D0995E0
:10163000E201640C751CD601ED91FC91C615D7052D
:101640005CF40088F189E02D87019401A501BE01B9
:10165000C60109952196EFCF0688F789E02DC601CE
:10166000DF91CF911F910F91FF90EF90DF90CF907E
:10167000BF90AF909F908F907F906F905F904F90B2
:1016800009948F929F92AF92BF92CF92DF92EF9286
:10169000FF920F931F93CF93DF93EC015B014A01FD
:1016A0006901E881F9810284F385E02D09959501AE
:1016B0002C0D3D1D21503109E881F9810488F589FF
:1016C000E02D78018401A401B501CE010995E881DE
:1016D000F9810688F789E02DCE01DF91CF911F9126
:1016E0000F91FF90EF90DF90CF90BF90AF909F90C1
:1016F0008F9009948F929F92AF92BF92CF92DF9278
:10170000EF92FF920F931F93CF93DF93EC015B0156
:101710004A0169017801E881F9810284F385E02DAD
:101720000995C80CD91C860101501109E881F9817D
:101730000488F589E02D9501A401B501CE01099534
:10174000E881F9810688F789E02DCE01DF91CF91FC
:101750001F910F91FF90EF90DF90CF90BF90AF90CF
:101760009F908F900994EF92FF920F931F93DC014B
:10177000ED91FC9100A0F1A1E02D09951F910F9131
:10178000FF90EF9008950F931F93DC01ED91FC9172
:10179000068CF78DE02D09951F910F9108950F93F9
:1017A0001F93DC01ED91FC91048CF58DE02D0995E2
:1017B0001F910F910895DC01ED91FC910084F1855A
:1017C000E02D09942F923F924F925F926F927F92F9
:1017D0008F929F92AF92BF92CF92DF92EF92FF9241
:1017E0000F931F93CF93DF9300D000D000D0CDB7DD
:1017F000DEB73C016A013E832D83FC82EB825801F7
:10180000A41AB50AB7FE03C0B194A194B1088D80A3
:101810009E80861A970A97FE03C09194819491083E
:101820008A149B045CF0902F812F0D811E819D8373
:101830008E839C2D8D2D6B01692F782F0C151D0526
:101840005CF09D818E817E836D83692F782F902F30
:10185000812F8601C92ED82E1601201A310A2B019C
:101860002D813E81421A530A57FE03C05194419480
:101870005108710137FE03C03FEFE31AF30AF594F4
:10188000E7948D819E81861797075CF5A1E0B0E013
:10189000BA83A983C016D1064CF1D301ED91FC9116
:1018A0000484F585E02D2B813C81A8016D817E812A
:1018B0008A149B041CF04D815E81B801C301099517
:1018C000E418F508F7FE0AC02D813E8189819A81CE
:1018D000280F391F3E832D83E20CF31C0F5F1F4F2F
:1018E000D9CF2FEF3FEF3A832983D4CF26960FB677
:1018F000F894DEBF0FBECDBFDF91CF911F910F9146
:10190000FF90EF90DF90CF90BF90AF909F908F901F
:101910007F906F905F904F903F902F9008950F931E
:101920001F93CF93DF931F92CDB7DEB78C016983EE
:1019300060E0FC01868D0E946C0341E050E0BE0136
:101940006F5F7F4FF801838D948D0E94F2040F909A
:10195000DF91CF911F910F910895CF93C82F87FDED
:10196000CFE7C093FF0461E280EE94E00E948F0C09
:101970006C2F606880EE94E00E948F0C60E280EE35
:1019800094E0CF910C948F0CCF938091FD0487FD50
:1019900013C061E00E949A0360E08091FD040E9400
:1019A0006C0361E070E080E090E00E946B0561E014
:1019B0008091FD040E946C03C0910005C83008F0BE
:1019C000C7E0C093000561E280EE94E00E948F0CB6
:1019D0006C2F606180EE94E00E948F0C60E280EEDC
:1019E00094E00E948F0C8091FF040E94AD0C60E295
:1019F00080EE94E00E948F0C6CE080EE94E0CF913A
:101A00000C948F0CFF920F931F93CF93DF939091C1
:101A10000105992339F0809102058F5F8917E8F558
:101A200080930205D0910505D695D695D69584E587
:101A3000D89F80011124809106058695869586950C
:101A40008D1780F16D2F606480EE94E00E948F0C02
:101A5000C0910305F09004056C2F606880EE94E05F
:101A60000E948F0C61E08091FE040E946C034F2D58
:101A700050E06C2F70E0461B570B4F5F5F4F600FBD
:101A8000711F60507F4F8091FB049091FC040E9475
:101A9000F204DF5F0C5A1F4FCECF109202050E9456
:101AA000C40CC0CF60E480EE94E00E948F0C83E50C
:101AB00080930305109204058FE280930505109230
:101AC0000605DF91CF911F910F91FF9008951F930D
:101AD000CF93DF93EC01162F60E20E948F0C6CE035
:101AE00011116DE0CE01DF91CF911F910C948F0CFD
:101AF000FC0177FD55C080859185681779070CF04A
:101B00004FC057FD4DC082859385481759070CF08B
:101B100047C08689823009F444C0833009F44EC03E
:101B2000813031F48FE290E0861B970BBA01AC0153
:101B3000842FA62F93A1691708F4962F93A394A13D
:101B40009A1708F49A2F94A395A1891708F4982F4F
:101B500095A396A1981708F4982F96A3CA0157FD4C
:101B60000796E3E095958795EA95E1F7A4E5A89FA8
:101B7000F001A99FF00D1124E60FF71FE050FF4F71
:101B8000CA0168E070E00E94F01841E050E001C036
:101B9000440F8A95EAF78081232BB9F0842B808348
:101BA000089583E590E0DC01A61BB70BBD018FE231
:101BB00090E0DC01A41BB50BAD01BACF83E590E04A
:101BC000841B950BAB01BC01B3CF40958423E7CFB9
:101BD000089590E080E008958F929F92AF92BF9217
:101BE000CF92DF92EF92FF926B017C0180903204E2
:101BF00090903304A0903404B090350420E030E09D
:101C000048E252E4C501B4010E949516181694F4F6
:101C100020E030E040EF51E4C501B4010E94F41728
:101C200087FF08C0A7019601C501B4010E94F417FF
:101C300087FD10C090E080E00E94CB0360E070E080
:101C4000CB01FF90EF90DF90CF90BF90AF909F902F
:101C50008F90089520E030E048E252E4C501B401DD
:101C60000E94F41718164CF48EE790E00E94CB0304
:101C700060E070E080E592E4E4CF20E030E040EF07
:101C800051E4C501B4010E94951687FF09C08AE599
:101C900090E00E94CB0360E070E084E192E4D1CF59
:101CA000A7019601C501B4010E94951687FF32C0B5
:101CB00020E030E040E450E4C701B6010E9449183A
:101CC0004B015C0120E030E0A9010E94F41720E004
:101CD00030E040E05FE387FD18C0C501B4010E9419
:101CE00029160E940C17CB010E94CB0320E030E0A4
:101CF00048EC52E4C701B6010E94491820E030E0E8
:101D000040EA52E40E949A169CCFC501B4010E9499
:101D10002816E7CF96CFE0E0F1E088EF91E0DF0111
:101D20009C011D9221503040E1F7109203058091F3
:101D30000405833508F483E58093040510920505B6
:101D4000809106058F3208F48FE280930605109289
:101D5000ED041092EC041092EF041092EE0408953A
:101D60000E94651AFB0101900020E9F73197AF014D
:101D7000461B570BDC01ED91FC910280F381E02DB5
:101D800009948F929F92AF92BF92EF92FF920F931E
:101D90001F93CF93DF93CDB7DEB7A1970FB6F8941B
:101DA000DEBF0FBECDBF7C01FA01CB0119A22230EC
:101DB00008F42AE08E010F5D1F4F822E912CB12C6A
:101DC000A12CBF01A50194010E940419F901CA01C7
:101DD0006A300CF5605DD8016E938D01232B242BA6
:101DE000252B79F790E080E0109721F0BD01C70125
:101DF0000E94B20EA1960FB6F894DEBF0FBECDBF03
:101E0000DF91CF911F910F91FF90EF90BF90AF9016
:101E10009F908F900895695CDECF2F923F924F92F2
:101E20005F926F927F928F929F92AF92BF92CF926A
:101E3000DF92EF92FF921F93CF93DF93EC016A0141
:101E40007B01722EAB019601CB01B6010E94B61840
:101E50006CE373E0811126C046015701E894B7F89E
:101E60002FEF3FEF4FE75FE7C501B4010E94B618BF
:101E700081110CC02FEF3FEF4FE75FE7C501B401C1
:101E80000E94951660E473E0181664F02FEF3FEFA0
:101E90004FE75FE4C701B6010E94F4171816B4F4C7
:101EA00064E473E0CE01DF91CF911F91FF90EF903A
:101EB000DF90CF90BF90AF909F908F907F906F906A
:101EC0005F904F903F902F900C94B20E2FEF3FEF0A
:101ED0004FE75FECC701B6010E94951687FDE0CF82
:101EE00020E030E0A901C701B6010E949516312C0F
:101EF000212C87FF0DC0E881F9810190F081E02D50
:101F00006DE2CE0109951C01F7FAF094F7F8F09410
:101F100010E060E070E080E09FE3711641F020E0A7
:101F200030E040E251E40E949A161F5FF6CFA7010D
:101F300096010E9429162B013C010E9413174B01A8
:101F40005C012AE0BC01A401CE010E94C10E7C010B
:101F5000E20CF31C1123E1F1C501B4010E94421708
:101F60009B01AC01C301B2010E9428164B015C0128
:101F7000E881F9810190F081E02D6EE2CE010995B2
:101F8000E80EF91E115020F120E030E040E251E46B
:101F9000C501B4010E9449182B013C010E9413178E
:101FA0004B01B12CA12C2AE0B501A401CE010E9465
:101FB000C10EE80EF91EC501B4010E9442179B0133
:101FC000AC01C301B2010E9428164B015C01DACFBB
:101FD000C701DF91CF911F91FF90EF90DF90CF90DD
:101FE000BF90AF909F908F907F906F905F904F9039
:101FF0003F902F9008950C94B20E1F93CF93DF93D0
:1020000085ED8093BC008091C1039091C203A091A3
:10201000C303B091C4030796A11DB11D23E0B6957B
:10202000A795979587952A95D1F72091BC0024FD17
:1020300003C01092090452C04091C1035091C203E1
:102040006091C3037091C403452B462B472B69F362
:102050000097A105B10541F02AE22A95F1F700C0E9
:102060000197A109B109E1CF8091C003C1E0C093FC
:10207000BF03882399F1D091B8001091BA008091E4
:10208000BC008A7B8093BC0060E082E10E946C030C
:1020900060E083E10E946C0310920904C0930B047A
:1020A00010920A0461E082E10E946C0361E083E126
:1020B0000E946C038091B9008E7F8093B90080915B
:1020C000B9008D7F8093B90088E48093B80085E4DF
:1020D0008093BC001093BA00D093B800DF91CF91E9
:1020E0001F9108958F929F92AF92BF92CF92DF92ED
:1020F000EF92FF9283E10E942304BC01990F880BA9
:10210000990B0E9444179B01AC0160E070EC8FE7D3
:1021100094E40E949A1620E030E040E85FE30E94D9
:10212000281620E030E44CE156E40E9449180E9451
:1021300001186B017C012CE63FEC48E554E30E945A
:102140004918A70196010E944918A70196010E940B
:1021500049184B015C0126ED34E649E759E3C70114
:10216000B6010E9449182BEC38E444E85AE30E9477
:1021700029169B01AC01C501B4010E9429169B01DF
:10218000AC0160E070E080E89FE30E949A1623E3D0
:1021900033E948E853E40E942816609332047093B0
:1021A00033048093340490933504FF90EF90DF90D4
:1021B000CF90BF90AF909F908F9008951F920F92F5
:1021C0000FB60F9211242F933F938F939F93AF934A
:1021D000BF9380913B0490913C04A0913D04B09149
:1021E0003E0430913A0423E0230F2D3758F5019631
:1021F000A11DB11D20933A0480933B0490933C04AD
:10220000A0933D04B0933E0480913F04909140041C
:10221000A0914104B09142040196A11DB11D80938B
:102220003F0490934004A0934104B0934204BF91B3
:10223000AF919F918F913F912F910F900FBE0F9073
:102240001F90189526E8230F0296A11DB11DD2CF2D
:102250001F920F920FB60F9211242F933F934F931B
:102260005F936F937F938F939F93AF93BF93EF93FE
:10227000FF9383E494E00E941B06FF91EF91BF91CE
:10228000AF919F918F917F916F915F914F913F910E
:102290002F910F900FBE0F901F9018951F920F92C5
:1022A0000FB60F9211242F938F939F93EF93FF9369
:1022B000E0915304F09154048081E0915904F0912D
:1022C0005A0482FD1BC0908180915C048F5F8F73E4
:1022D00020915D04821741F0E0915C04F0E0ED5B39
:1022E000FB4F958F80935C04FF91EF919F918F91AD
:1022F0002F910F900FBE0F901F9018958081F4CFF3
:102300001F920F920FB60F9211240F900FBE0F90D5
:102310001F9018951F920F920FB60F9211242F93B2
:102320003F934F935F936F937F938F939F93AF935D
:10233000BF93EF93FF938091B900887F803609F4B3
:102340004AC0F0F5883209F4A5C018F5803109F4C7
:1023500099C0B8F4882309F4F5C0883009F492C014
:10236000FF91EF91BF91AF919F918F917F916F916D
:102370005F914F913F912F910F900FBE0F901F9043
:102380001895883109F486C0803251F7809308048B
:1023900014C0803409F49BC040F48033B9F388330F
:1023A000F9F68093080485ECAEC0803509F483C04B
:1023B000883509F494C0883499F60E94FD0FD0CF77
:1023C000883909F48AC038F5883729F050F48836FE
:1023D00011F0803729F683E08093090410920704F6
:1023E00055C0883809F479C0803919F0803809F06F
:1023F000B7CF80910704803208F06FC0E0910704E6
:1024000081E08E0F809307048091BB00F0E0E951DA
:10241000FC4F80833BC0803B39F0D0F4803A09F414
:1024200077C0883A09F09CCF84E080930904109229
:10243000E6031092E503F0E0E0E009958091E50302
:1024400081110FC081E08093E5031092C50309C09C
:10245000803C09F4A8CF883C09F4A5CF883B09F05B
:102460007FCFE091E60381E08E0F8093E603F0E0FA
:10247000EB53FC4F80818093BB009091E6038091E9
:10248000E50329C080912E048093BB0085EC8093E6
:10249000BC0066CF90912D0480912C04981758F5BC
:1024A000E0912D0481E08E0F80932D04F0E0E45F35
:1024B000FB4F8081E9CFE0912D0481E08E0F809366
:1024C0002D048091BB00F0E0E45FFB4F808390918E
:1024D0002D0480912C049817C8F285E8D8CFE0919C
:1024E0002D0481E08E0F80932D048091BB00F0E0DD
:1024F000E45FFB4F808380910B0481115ECF81E00C
:1025000080930A0484EA8093BC001092090428CFC7
:1025100085EC8093BC0010920904809107048032FE
:1025200030F4E0910704F0E0E951FC4F1082609133
:10253000070470E087EE93E0F0E0E0E00995109288
:1025400007040ECF1092080438CF0F931F93CF9338
:10255000DF93E3E4F4E01382128288EE93E0A0E0DC
:10256000B0E084839583A683B78382E093E0918370
:10257000808385EC90E09587848784EC90E0978752
:10258000868780EC90E0918B808B81EC90E0938B40
:10259000828B82EC90E0958B848B86EC90E0978B1D
:1025A000868B118E128E138E148EC0EED4E01B8299
:1025B0001A8224E530E03D832C8380E390E09F8302
:1025C0008E83398728879B878A871E8A1D861C866B
:1025D0001F861E8681E08D8B8C8B2FEF3FEF3B8B10
:1025E0002A8B398B288B8F8B188E1A8E198E84E14B
:1025F00093E0998388838CE190E00E9440198C01DC
:1026000084E0D8011B968C931B9787E01C968C93D3
:102610001C978FEF1E968C931E9785E01D968C93CA
:102620001D97ECE0F6E0E491F0E0EE0FFF1FE250C2
:10263000FA4F85919491F801968B858BEEEEF5E03B
:10264000E4915A96EC935A97EDE0F6E0E491F0E0CD
:10265000EE0FFF1FE250FA4F85919491F801908B95
:102660008787EFEEF5E0E4915796EC935797EFE00C
:10267000F6E0E491F0E0EE0FFF1FE250FA4F859193
:102680009491F801928B818BE1EFF5E0E4915996FA
:10269000EC9380E099E0ADE3B0E0F80184839583AA
:1026A000A683B78381E090E0918780871286138E9E
:1026B00082E090E00E94401920E5DC012C93119605
:1026C0001C92F80193838283118210821C8F0B8FDE
:1026D00086E08E8F88E08D8FDF91CF911F910F91D3
:1026E0000895789484B5826084BD84B5816084BD8A
:1026F00085B5826085BD85B5816085BD80916E00A0
:10270000816080936E0010928100809181008260D0
:10271000809381008091810081608093810080910D
:1027200080008160809380008091B10084608093FC
:10273000B1008091B00081608093B00080917A00F8
:10274000846080937A0080917A00826080937A001E
:1027500080917A00816080937A0080917A0080680D
:1027600080937A001092C100E0915304F0915404D8
:1027700082E08083E0914F04F09150041082E09158
:102780005104F09152048FEC808310925B04E0912D
:102790005704F091580486E08083E0915504F0914D
:1027A0005604808180618083E0915504F091560445
:1027B000808188608083E0915504F0915604808187
:1027C00080688083E0915504F091560480818F7D6C
:1027D000808360E08DE00E949A0361E082E00E94C5
:1027E0009A0361E083E00E949A03C091FB04D091B8
:1027F000FC048B858F3F39F061E00E949A0361E011
:102800008B850E946C0388819981892B09F494C17E
:102810001FB7F89480913104811127C0E2E1F6E0FE
:102820008491E4EFF5E09491E82FF0E0EE0FFF1FC4
:10283000EE53FA4FA591B491EC91E92321F461E0B4
:102840008AE00E946C0361E08AE00E949A038CB5E2
:1028500080618CBD8CB580648CBD61E08DE00E9490
:102860009A0361E08BE00E949A03809131048F5FAC
:10287000809331041FBF81E08B8F61E08091FE0463
:102880000E949A038091FD0487FD03C061E00E94CD
:102890009A0384E08093000588E28093FF041092FD
:1028A0000105109202050E94C40C1092030580914C
:1028B0000405833508F483E580930405109205052B
:1028C000809106058F3208F48FE2809306050E94FE
:1028D000020D82E30E94AD0C0E94020D64EF71E0D4
:1028E00080E090E00E946B050E948B0E81E0809357
:1028F000F4048093F50481E090E09093F3048093D6
:10290000F2049093F1048093F004CAE0D0E030E048
:10291000232E30E0332E0E9472106B017C0120E0E8
:1029200030E040E052E40E94951687FF23C160E04A
:1029300083E00E946C0361E082E00E946C03A701C7
:10294000960160E070E080E092E40E9428166093B7
:102950003604709337048093380490933904412CE3
:10296000512C612C22E4722E81E10E9423048C01FF
:1029700082E10E9423045C0168E473E080EE94E04D
:102980000E94FB0F0E947210AB01BC0122E080EE9E
:1029900094E00E940D0F6DE473E080EE94E00E94DD
:1029A000FB0F60E573E080EE94E00E94FB0F22E0F5
:1029B000B301A20180EE94E00E940D0F6DE473E07C
:1029C00080EE94E00E94FB0F67E573E080EE94E0F8
:1029D0000E94FB0FC501BE010E94F018072E000CDB
:1029E000880B990B0E944417AB01BC0122E080EEDA
:1029F00094E00E940D0F6CE573E080EE94E00E947D
:102A0000FB0FC801BE010E94F018072E000C880BB6
:102A1000990B0E944417AB01BC0122E080EE94E0C8
:102A20000E940D0F62E673E080EE94E00E94FB0FBF
:102A300065E673E080EE94E00E94FB0F409136045F
:102A400050913704609138047091390422E080EE8F
:102A500094E00E940D0F0E94020D68EC70E080E08F
:102A600090E00E946B050E948B0EE9EDF5E08491E9
:102A7000E7EFF5E00491E5E1F6E014911111B3C040
:102A800068E673E083E494E00E94FB0F81E10E941A
:102A90002304BE010E94F0184B01072E000CAA0867
:102AA000BB0877FFCEC06DE283E494E00E943D0650
:102AB00044275527BA01481959096A097B092AE0B0
:102AC00083E494E00E94C10E66E873E083E494E03E
:102AD0000E94B20E68E873E083E494E00E94B20EB4
:102AE0006BE873E083E494E00E94FB0F63EA73E019
:102AF00083E494E00E94FB0F409132045091330430
:102B0000609134047091350422E083E494E00E94E3
:102B10000D0F6AEB73E083E494E00E94B20E68E864
:102B200073E083E494E00E94B20E6BE873E083E408
:102B300094E00E94FB0F66C061E08C850E949A03BE
:102B40008A858B7F60E009F061E08C850E946C03D0
:102B50008D858F3F39F061E00E949A0361E08D8599
:102B60000E946C038E858F3F09F485CE60E00E9441
:102B70009A0381CE20E030E048E252E4C701B6017A
:102B80000E94F41760E01816F4F482E00E946C03CF
:102B900061E083E00E946C03A701960160E070E0B1
:102BA00088E292E40E9428166093360470933704FA
:102BB0008093380490933904412C512C98E2692E6B
:102BC00092E4792ED1CE83E00E946C0360E082E033
:102BD0000E946C031092360410923704109238044D
:102BE00010923904C1CE81110E944303E12FF0E01D
:102BF000EE0FFF1FE052FA4FA591B4918C9108237C
:102C000009F43ECF20E030E0A901609136047091D4
:102C1000370480913804909139040E9495168111EF
:102C200014C0C701B6010E94EC0D2114310409F44F
:102C300072CE0E940706882309F46DCE0E94000020
:102C40006ACE2AE0B501A4013BCFC301B201EBCFAC
:102C50005058BB27AA270E9440160C94BA170E940E
:102C6000AC1738F00E94B31720F039F49F3F19F4E5
:102C700026F40C94A9170EF4E095E7FB0C94A31727
:102C8000E92F0E94CB1758F3BA176207730784071E
:102C9000950720F079F4A6F50C94ED170EF4E09565
:102CA0000B2EBA2FA02D0B01B90190010C01CA0106
:102CB000A0011124FF27591B99F0593F50F4503EB1
:102CC00068F11A16F040A22F232F342F4427585FA3
:102CD000F3CF469537952795A795F0405395C9F7BB
:102CE0007EF41F16BA0B620B730B840BBAF0915073
:102CF000A1F0FF0FBB1F661F771F881FC2F70EC012
:102D0000BA0F621F731F841F48F4879577956795E4
:102D1000B795F7959E3F08F0B0CF9395880F08F0D0
:102D20009927EE0F9795879508950E947F1708F4CD
:102D300081E008950E94AE160C94BA170E94B31752
:102D400058F00E94AC1740F029F45F3F29F00C9432
:102D5000A31751110C94EE170C94A9170E94CB17CE
:102D600068F39923B1F3552391F3951B550BBB27BA
:102D7000AA2762177307840738F09F5F5F4F220FFF
:102D8000331F441FAA1FA9F335D00E2E3AF0E0E8F6
:102D900032D091505040E695001CCAF72BD0FE2F40
:102DA00029D0660F771F881FBB1F261737074807D4
:102DB000AB07B0E809F0BB0B802DBF01FF2793588C
:102DC0005F4F3AF09E3F510578F00C94A3170C9496
:102DD000EE175F3FE4F3983ED4F3869577956795B9
:102DE000B795F7959F5FC9F7880F911D96958795C1
:102DF00097F90895E1E0660F771F881FBB1F6217E0
:102E000073078407BA0720F0621B730B840BBA0B9D
:102E1000EE1F88F7E09508950E9413176894B1118A
:102E20000C94EE1708950E94D31788F09F5798F0DE
:102E3000B92F9927B751B0F0E1F0660F771F881FBF
:102E4000991F1AF0BA95C9F714C0B13091F00E94D9
:102E5000ED17B1E008950C94ED17672F782F8827B0
:102E6000B85F39F0B93FCCF3869577956795B39500
:102E7000D9F73EF490958095709561957F4F8F4F6F
:102E80009F4F0895E89409C097FB3EF49095809574
:102E9000709561957F4F8F4F9F4F9923A9F0F92F20
:102EA00096E9BB279395F695879577956795B7959E
:102EB000F111F8CFFAF4BB0F11F460FF1BC06F5F84
:102EC0007F4F8F4F9F4F16C0882311F096E911C096
:102ED000772321F09EE8872F762F05C0662371F0B7
:102EE00096E8862F70E060E02AF09A95660F771FCB
:102EF000881FDAF7880F9695879597F90895990FA7
:102F00000008550FAA0BE0E8FEEF16161706E807B3
:102F1000F907C0F012161306E407F50798F0621BD4
:102F2000730B840B950B39F40A2661F0232B242BA9
:102F3000252B21F408950A2609F4A140A6958FEFC8
:102F4000811D811D089597F99F6780E870E060E01A
:102F500008959FEF80EC089500240A941616170632
:102F600018060906089500240A941216130614067A
:102F700005060895092E0394000C11F4882352F0DD
:102F8000BB0F40F4BF2B11F460FF04C06F5F7F4F95
:102F90008F4F9F4F089557FD9058440F551F59F07C
:102FA0005F3F71F04795880F97FB991F61F09F3F36
:102FB00079F087950895121613061406551FF2CF5F
:102FC0004695F1DF08C0161617061806991FF1CFAF
:102FD00086957105610508940895E894BB276627D6
:102FE0007727CB0197F908950E947F1708F48FEF98
:102FF000089516F00C94BB180C94A91768940C94BF
:10300000A3170E94D317A8F39923C1F3AEF3DF935C
:10301000CF931F930F93FF92C92FDD2788232AF0A8
:103020002197660F771F881FDAF720E030E040E82D
:103030005FEB9FE3883920F0803E38F021968F7750
:103040000E942916E8E6F0E004C00E942916E5E98E
:10305000F0E00E94C9188B01BE01EC01FB2E6F57F6
:1030600071097595771F880B990B0E94441728E109
:1030700032E741E35FE30E945C18AF2D9801AE0197
:10308000FF900F911F91CF91DF910E9440160C94F9
:10309000BA170E945C180C94BA170E94AC1738F04B
:1030A0000E94B31720F0952311F00C94A3170C94F1
:1030B000A91711240C94EE170E94CB1770F3959F5B
:1030C000C1F3950F50E0551F629FF001729FBB271F
:1030D000F00DB11D639FAA27F00DB11DAA1F649FBB
:1030E0006627B00DA11D661F829F2227B00DA11D6E
:1030F000621F739FB00DA11D621F839FA00D611DF4
:10310000221F749F3327A00D611D231F849F600D14
:10311000211D822F762F6A2F11249F5750409AF03D
:10312000F1F088234AF0EE0FFF1FBB1F661F771FC9
:10313000881F91505040A9F79E3F510580F00C9494
:10314000A3170C94EE175F3FE4F3983ED4F38695F3
:1031500077956795B795F795E7959F5FC1F7FE2B34
:10316000880F911D9695879597F908950E947F176E
:10317000880B990B08959F3F31F0915020F487956B
:1031800077956795B795880F911D9695879597F9CF
:103190000895DF93CF931F930F93FF92EF92DF92E7
:1031A0007B018C01689406C0DA2EEF010E945C1846
:1031B000FE01E894A5912591359145915591A6F38D
:1031C000EF010E944016FE019701A801DA9469F709
:1031D000DF90EF90FF900F911F91CF91DF910895B5
:1031E00097FB072E16F4009407D077FD09D00E94B4
:1031F000261907FC05D03EF4909581959F4F0895C0
:10320000709561957F4F0895A1E21A2EAA1BBB1BF2
:10321000FD010DC0AA1FBB1FEE1FFF1FA217B307A2
:10322000E407F50720F0A21BB30BE40BF50B661FB8
:10323000771F881F991F1A9469F76095709580957C
:1032400090959B01AC01BD01CF010895AA1BBB1B4A
:1032500051E107C0AA1FBB1FA617B70710F0A61B96
:10326000B70B881F991F5A95A9F780959095BC01B7
:10327000CD010895EE0FFF1F0590F491E02D099404
:103280000F931F93CF93DF938230910510F482E068
:1032900090E0E0910905F0910A0530E020E0B0E00F
:1032A000A0E0309799F42115310509F44AC0281B94
:1032B000390B24303105D8F58A819B816115710560
:1032C00089F1FB0193838283FE0111C0408151810A
:1032D0000281138148175907E0F04817590799F4FC
:1032E000109761F012960C93129713961C933296D6
:1032F000CF01DF91CF911F910F91089500930905A0
:1033000010930A05F4CF2115310551F042175307E8
:1033100038F0A901DB019A01BD01DF01F801C1CF3D
:10332000EF01F9CF90930A0580930905CDCFFE01F7
:10333000E20FF31F8193919322503109398328833F
:10334000D7CF2091070530910805232B41F4209118
:10335000FA023091FB023093080520930705209173
:10336000F8023091F9022115310541F42DB73EB72D
:103370004091FC025091FD02241B350BE0910705A2
:10338000F0910805E217F307A0F42E1B3F0B281756
:10339000390778F0AC014E5F5F4F2417350748F0CE
:1033A0004E0F5F1F5093080540930705819391933B
:1033B0009FCFF0E0E0E09CCFCF93DF930097E9F060
:1033C000FC01329713821282A0910905B0910A057F
:1033D000ED0130E020E01097A1F420813181820FCF
:1033E000931F20910705309108052817390709F028
:1033F00061C0F0930805E0930705DF91CF91089530
:10340000EA01CE17DF07E8F54A815B819E0141158D
:103410005105B1F7E901FB83EA8349915991C40F42
:10342000D51FEC17FD0761F4808191810296840F0E
:10343000951FE90199838883828193819B838A8385
:10344000F0E0E0E012968D919C9113970097B9F50A
:103450002D913C911197CD010296820F931F2091DF
:103460000705309108052817390739F6309751F5C7
:1034700010920A0510920905B0930805A09307055C
:10348000BCCFD383C28340815181840F951FC8175D
:10349000D90761F44E5F5F4F88819981480F591FAA
:1034A000518340838A819B819383828321153105D7
:1034B00009F0B0CFF0930A05E09309059ECFFD0116
:1034C000DC01C0CF13821282D7CF81E090E0F89464
:0834D0000C946A1AF894FFCF76
:1034D80000000000000000000000000000000000E4
:1034E80000000000000000000000000000000000D4
:1034F800000000000000C0E0F0F8FCFCFEFFFCE06B
:1035080000000000000000000000000000000000B3
:1035180000000000000000000000000000000000A3
:103528000000000000000000000000000000000093
:103538000000000000F8F8F8F8F8F8F8F8F8F8F8DB
:10354800F8F0F0E0E0C080C0FCFFFFFFFF7F3F7FA6
:10355800FFFFFFFFFF000000000000000000000068
:103568000000000000000000000000000000000053
:103578000000000000000000000000000000000043
:10358800000000000000000000000F1F3F7FFFFF49
:10359800FFFFFFFFFFFFE7C7C7878F9F9FFFFFFF63
:1035A800C1C0E0FCFFFFFFFFFFFCFCFCFCFEFEFED1
:1035B800FCFCF8F8F0E0C0C00000000000000000CB
:1035C80000000000000000000000000000000000F3
:1035D80000000000000000000000000000000000E3
:1035E8000080C0E0F1FBFFFFFFFFFF7F1F0F0F8789
:1035F800E7FFFFFF1F1F3FF9F8F8F8F8F8F8FDFF9D
:10360800FFFFFFFFFFFFFFFF7F3F0F0701000000E5
:1036180000000000000000000000000000000000A2
:103628000000000000000000000000000000000092
:10363800000000F0FEFFFFFFFFFFFFFFFFFFFFFEA0
:103648007E3F3F0F1FFFFFFFFCF0E0F1FFFFFFFF92
:10365800FFFCF0010101010101010100000000006F
:103668000000000000000000000000000000000052
:103678000000000000000000000000000000000042
:103688000000000000000003030303030303030119
:1036980001010100000000000000030F1F3F7F7FB1
:1036A800FFFFFFFF7F7F1F030000000000000000F6
:1036B8000000000000000000000000000000000002
:1036C800000000000000000000000B058000000062
:1036D80000003D069D05CA058A06FB05D905ED05CE
:1036E8000000000036099D05E90DE80D780DD106AA
:1036F800DB0BB30BCF0BC30BE20BD106FC06670D3C
:103708007A0B410BFC0ADF0A670A080A6E616E0031
:10371800696E66006F766600543A200A00430A0014
:1037280054204F703A20005049443A000A48202556
:103738003A00250A00453A00506F7263656E74615D
:103748006A652048756D65646164207820646566E3
:1037580061756C743A0025000D0A002D2D2D2D2D54
:103768002D2D2D2D2D2D2D2D2D2D2D2D2D2D2D2D81
:10377800200A0054656D70657261747572612078F5
:0E3788002064656661756C743A00C2B043003F
:00000001FF
